{
  "address": "0x858dC6D865D8ACb09c1D0A6A4166c570823863ad",
  "abi": [
    {
      "inputs": [
        {
          "internalType": "address",
          "name": "_usdcToken",
          "type": "address"
        },
        {
          "internalType": "address",
          "name": "_platformWallet",
          "type": "address"
        }
      ],
      "stateMutability": "nonpayable",
      "type": "constructor"
    },
    {
      "inputs": [],
      "name": "ECDSAInvalidSignature",
      "type": "error"
    },
    {
      "inputs": [
        {
          "internalType": "uint256",
          "name": "length",
          "type": "uint256"
        }
      ],
      "name": "ECDSAInvalidSignatureLength",
      "type": "error"
    },
    {
      "inputs": [
        {
          "internalType": "bytes32",
          "name": "s",
          "type": "bytes32"
        }
      ],
      "name": "ECDSAInvalidSignatureS",
      "type": "error"
    },
    {
      "anonymous": false,
      "inputs": [
        {
          "indexed": true,
          "internalType": "bytes32",
          "name": "sessionId",
          "type": "bytes32"
        },
        {
          "indexed": false,
          "internalType": "uint256",
          "name": "feeAmount",
          "type": "uint256"
        }
      ],
      "name": "FeeCollected",
      "type": "event"
    },
    {
      "anonymous": false,
      "inputs": [
        {
          "indexed": true,
          "internalType": "bytes32",
          "name": "sessionId",
          "type": "bytes32"
        },
        {
          "indexed": true,
          "internalType": "address",
          "name": "creator",
          "type": "address"
        },
        {
          "indexed": false,
          "internalType": "uint256",
          "name": "amount",
          "type": "uint256"
        }
      ],
      "name": "SessionCreated",
      "type": "event"
    },
    {
      "anonymous": false,
      "inputs": [
        {
          "indexed": true,
          "internalType": "bytes32",
          "name": "sessionId",
          "type": "bytes32"
        },
        {
          "indexed": true,
          "internalType": "address",
          "name": "creator",
          "type": "address"
        },
        {
          "indexed": false,
          "internalType": "uint256",
          "name": "totalDistributed",
          "type": "uint256"
        },
        {
          "indexed": false,
          "internalType": "uint256",
          "name": "refundAmount",
          "type": "uint256"
        }
      ],
      "name": "SessionSettled",
      "type": "event"
    },
    {
      "anonymous": false,
      "inputs": [
        {
          "indexed": true,
          "internalType": "address",
          "name": "recipient",
          "type": "address"
        },
        {
          "indexed": false,
          "internalType": "uint256",
          "name": "amount",
          "type": "uint256"
        }
      ],
      "name": "TipAvailable",
      "type": "event"
    },
    {
      "anonymous": false,
      "inputs": [
        {
          "indexed": true,
          "internalType": "address",
          "name": "recipient",
          "type": "address"
        },
        {
          "indexed": false,
          "internalType": "uint256",
          "name": "amount",
          "type": "uint256"
        },
        {
          "indexed": true,
          "internalType": "address",
          "name": "tipper",
          "type": "address"
        },
        {
          "indexed": true,
          "internalType": "bytes32",
          "name": "sessionId",
          "type": "bytes32"
        }
      ],
      "name": "TipReceived",
      "type": "event"
    },
    {
      "anonymous": false,
      "inputs": [
        {
          "indexed": true,
          "internalType": "address",
          "name": "recipient",
          "type": "address"
        },
        {
          "indexed": false,
          "internalType": "uint256",
          "name": "amount",
          "type": "uint256"
        }
      ],
      "name": "Withdrawn",
      "type": "event"
    },
    {
      "inputs": [],
      "name": "PLATFORM_FEE_PERCENTAGE",
      "outputs": [
        {
          "internalType": "uint256",
          "name": "",
          "type": "uint256"
        }
      ],
      "stateMutability": "view",
      "type": "function"
    },
    {
      "inputs": [
        {
          "internalType": "bytes32",
          "name": "_sessionId",
          "type": "bytes32"
        }
      ],
      "name": "abortSession",
      "outputs": [],
      "stateMutability": "nonpayable",
      "type": "function"
    },
    {
      "inputs": [
        {
          "internalType": "address",
          "name": "",
          "type": "address"
        }
      ],
      "name": "balances",
      "outputs": [
        {
          "internalType": "uint256",
          "name": "",
          "type": "uint256"
        }
      ],
      "stateMutability": "view",
      "type": "function"
    },
    {
      "inputs": [
        {
          "internalType": "uint256",
          "name": "_amount",
          "type": "uint256"
        }
      ],
      "name": "createSession",
      "outputs": [
        {
          "internalType": "bytes32",
          "name": "sessionId",
          "type": "bytes32"
        }
      ],
      "stateMutability": "nonpayable",
      "type": "function"
    },
    {
      "inputs": [],
      "name": "platformWallet",
      "outputs": [
        {
          "internalType": "address",
          "name": "",
          "type": "address"
        }
      ],
      "stateMutability": "view",
      "type": "function"
    },
    {
      "inputs": [
        {
          "internalType": "bytes32",
          "name": "",
          "type": "bytes32"
        }
      ],
      "name": "sessions",
      "outputs": [
        {
          "internalType": "address",
          "name": "creator",
          "type": "address"
        },
        {
          "internalType": "uint256",
          "name": "totalAmount",
          "type": "uint256"
        },
        {
          "internalType": "bool",
          "name": "isActive",
          "type": "bool"
        }
      ],
      "stateMutability": "view",
      "type": "function"
    },
    {
      "inputs": [
        {
          "internalType": "bytes32",
          "name": "_sessionId",
          "type": "bytes32"
        },
        {
          "internalType": "address[]",
          "name": "_recipients",
          "type": "address[]"
        },
        {
          "internalType": "uint256[]",
          "name": "_amounts",
          "type": "uint256[]"
        },
        {
          "internalType": "bytes",
          "name": "_signature",
          "type": "bytes"
        }
      ],
      "name": "settleSession",
      "outputs": [],
      "stateMutability": "nonpayable",
      "type": "function"
    },
    {
      "inputs": [],
      "name": "usdcToken",
      "outputs": [
        {
          "internalType": "contract IERC20",
          "name": "",
          "type": "address"
        }
      ],
      "stateMutability": "view",
      "type": "function"
    },
    {
      "inputs": [],
      "name": "withdraw",
      "outputs": [],
      "stateMutability": "nonpayable",
      "type": "function"
    }
  ],
  "transactionHash": "0xa377627ce50c4cc60ba65606c6a4f52909d43cd679dffa28d606def576143dea",
  "args": [
    "0x1c7D4B196Cb0C7B01d743Fbc6116a902379C7238",
    "0x78c5FEb77d691697532741594189DcDAbb69da87"
  ],
  "numDeployments": 1,
  "solcInputHash": "5027988ef2428e0aa78a57bfa02b112d",
  "bytecode": "0x60c060405234801561001057600080fd5b5060405161145538038061145583398101604081905261002f916100bc565b6001600160a01b0381166100895760405162461bcd60e51b815260206004820152601760248201527f496e76616c696420706c6174666f726d2077616c6c6574000000000000000000604482015260640160405180910390fd5b6001600160a01b039182166080521660a0526100ef565b80516001600160a01b03811681146100b757600080fd5b919050565b600080604083850312156100cf57600080fd5b6100d8836100a0565b91506100e6602084016100a0565b90509250929050565b60805160a05161131861013d600039600081816101bd015261079f015260008181609d01528181610270015281816107ce015281816108d501528181610aff0152610c6801526113186000f3fe608060405234801561001057600080fd5b50600436106100935760003560e01c80637dbd2832116100665780637dbd28321461011c578063be9294da1461017f578063d8fa2efd14610192578063f847cdde146101a5578063fa2af9da146101b857600080fd5b806311eac8551461009857806315548232146100dc57806327e235e3146100f25780633ccfd60b14610112575b600080fd5b6100bf7f000000000000000000000000000000000000000000000000000000000000000081565b6040516001600160a01b0390911681526020015b60405180910390f35b6100e4600181565b6040519081526020016100d3565b6100e4610100366004611050565b60016020526000908152604090205481565b61011a6101df565b005b61015861012a366004611072565b6000602081905290815260409020805460018201546002909201546001600160a01b03909116919060ff1683565b604080516001600160a01b03909416845260208401929092521515908201526060016100d3565b61011a61018d3660046110d7565b610365565b61011a6101a0366004611072565b610a1f565b6100e46101b3366004611072565b610bf2565b6100bf7f000000000000000000000000000000000000000000000000000000000000000081565b33600090815260016020526040902054806102385760405162461bcd60e51b81526020600482015260146024820152734e6f2066756e647320746f20776974686472617760601b60448201526064015b60405180910390fd5b336000818152600160205260408082208290555163a9059cbb60e01b8152600481019290925260248201839052906001600160a01b037f0000000000000000000000000000000000000000000000000000000000000000169063a9059cbb906044016020604051808303816000875af11580156102b9573d6000803e3d6000fd5b505050506040513d601f19601f820116820180604052508101906102dd91906111b9565b90508061032c5760405162461bcd60e51b815260206004820152601860248201527f5769746864726177207472616e73666572206661696c65640000000000000000604482015260640161022f565b60405182815233907f7084f5476618d8e60b11ef0d7d3f06914655adb8793e28ff7f018d4c76d505d59060200160405180910390a25050565b6000878152602081905260409020600281015460ff166103bf5760405162461bcd60e51b815260206004820152601560248201527453657373696f6e206973206e6f742061637469766560581b604482015260640161022f565b8584146104075760405162461bcd60e51b8152602060048201526016602482015275082e4e4c2f2e640d8cadccee8d040dad2e6dac2e8c6d60531b604482015260640161022f565b6000805b8581101561044157868682818110610425576104256111db565b90506020020135826104379190611207565b915060010161040b565b5081600101548111156104965760405162461bcd60e51b815260206004820152601c60248201527f496e73756666696369656e742073657373696f6e2062616c616e636500000000604482015260640161022f565b600089898989896040516020016104b195949392919061121a565b60408051601f1981840301815282825280516020918201208654601f890183900483028501830190935287845293506001600160a01b039091169161051c9188908890819084018382808284376000920191909152506105169250869150610dfc9050565b90610e2f565b6001600160a01b0316146105665760405162461bcd60e51b8152602060048201526011602482015270496e76616c6964207369676e617475726560781b604482015260640161022f565b60028301805460ff191690556000805b89811015610781576000898983818110610592576105926111db565b905060200201351115610779576000606460018b8b858181106105b7576105b76111db565b905060200201356105c89190611280565b6105d29190611297565b90506105de8184611207565b9250808a8a848181106105f3576105f36111db565b9050602002013561060491906112b9565b600160008e8e8681811061061a5761061a6111db565b905060200201602081019061062f9190611050565b6001600160a01b03166001600160a01b03168152602001908152602001600020600082825461065e9190611207565b909155505085548d906001600160a01b03168d8d85818110610682576106826111db565b90506020020160208101906106979190611050565b6001600160a01b03167fea7bf02a0f49b5e44f8ad4fb7407eba7c269b8f772a5de8ff13d452394964a358d8d878181106106d3576106d36111db565b905060200201356040516106e991815260200190565b60405180910390a48b8b83818110610703576107036111db565b90506020020160208101906107189190611050565b6001600160a01b03167f1035cf4ed71e98b7709661245fe873faf2c0ffffa0be7b568c2d9ec88f796502828c8c86818110610755576107556111db565b9050602002013561076691906112b9565b60405190815260200160405180910390a2505b600101610576565b5080156108b85760405163a9059cbb60e01b81526001600160a01b037f000000000000000000000000000000000000000000000000000000000000000081166004830152602482018390527f0000000000000000000000000000000000000000000000000000000000000000169063a9059cbb906044016020604051808303816000875af1158015610817573d6000803e3d6000fd5b505050506040513d601f19601f8201168201806040525081019061083b91906111b9565b61087d5760405162461bcd60e51b8152602060048201526013602482015272119959481d1c985b9cd9995c8819985a5b1959606a1b604482015260640161022f565b8a7f156e588d1067ba3c8a6a7f4376ef70794f8afed114dc9d1421e054b65743e630826040516108af91815260200190565b60405180910390a25b82846001015411156109b657835460018501546001600160a01b037f000000000000000000000000000000000000000000000000000000000000000081169263a9059cbb9291169061090b9087906112b9565b6040516001600160e01b031960e085901b1681526001600160a01b03909216600483015260248201526044016020604051808303816000875af1158015610956573d6000803e3d6000fd5b505050506040513d601f19601f8201168201806040525081019061097a91906111b9565b6109b65760405162461bcd60e51b815260206004820152600d60248201526c1499599d5b990819985a5b1959609a1b604482015260640161022f565b835460018501546001600160a01b03909116908c907f7c23ae8845bbff5117865e964e8f3c52a071db75b5c5cef7abe26ae9e41192819086906109fa9082906112b9565b6040805192835260208301919091520160405180910390a35050505050505050505050565b6000818152602081905260409020600281015460ff16610a765760405162461bcd60e51b815260206004820152601260248201527153657373696f6e206e6f742061637469766560701b604482015260640161022f565b80546001600160a01b03163314610ac55760405162461bcd60e51b81526020600482015260136024820152722737ba1039b2b9b9b4b7b71031b932b0ba37b960691b604482015260640161022f565b60028101805460ff191690558054600182015460405163a9059cbb60e01b81526001600160a01b03928316600482015260248101919091527f00000000000000000000000000000000000000000000000000000000000000009091169063a9059cbb906044016020604051808303816000875af1158015610b4a573d6000803e3d6000fd5b505050506040513d601f19601f82011682018060405250810190610b6e91906111b9565b610baa5760405162461bcd60e51b815260206004820152600d60248201526c1499599d5b990819985a5b1959609a1b604482015260640161022f565b600181015460408051600081526020810192909252339184917f7c23ae8845bbff5117865e964e8f3c52a071db75b5c5cef7abe26ae9e4119281910160405180910390a35050565b6000808211610c435760405162461bcd60e51b815260206004820152601d60248201527f416d6f756e74206d7573742062652067726561746572207468616e2030000000604482015260640161022f565b6040516323b872dd60e01b8152336004820152306024820152604481018390526000907f00000000000000000000000000000000000000000000000000000000000000006001600160a01b0316906323b872dd906064016020604051808303816000875af1158015610cb9573d6000803e3d6000fd5b505050506040513d601f19601f82011682018060405250810190610cdd91906111b9565b905080610d235760405162461bcd60e51b81526020600482015260146024820152731554d110c81d1c985b9cd9995c8819985a5b195960621b604482015260640161022f565b6040516bffffffffffffffffffffffff193360601b1660208201524260348201526054810184905260740160408051808303601f1901815282825280516020918201206060840183523380855282850188815260018686018181526000858152808752879020975188546001600160a01b0319166001600160a01b03909116178855915190870155516002909501805460ff191695151595909517909455915186815291945084917f12212fc639e7368fbfdeb5ffb8ab971f9fe1d8736a5aee1b07fea216ab776293910160405180910390a350919050565b7f19457468657265756d205369676e6564204d6573736167653a0a3332000000006000908152601c91909152603c902090565b600080600080610e3f8686610e5b565b925092509250610e4f8282610ea8565b50909150505b92915050565b60008060008351604103610e955760208401516040850151606086015160001a610e8788828585610f65565b955095509550505050610ea1565b50508151600091506002905b9250925092565b6000826003811115610ebc57610ebc6112cc565b03610ec5575050565b6001826003811115610ed957610ed96112cc565b03610ef75760405163f645eedf60e01b815260040160405180910390fd5b6002826003811115610f0b57610f0b6112cc565b03610f2c5760405163fce698f760e01b81526004810182905260240161022f565b6003826003811115610f4057610f406112cc565b03610f61576040516335e2f38360e21b81526004810182905260240161022f565b5050565b600080807f7fffffffffffffffffffffffffffffff5d576e7357a4501ddfe92f46681b20a0841115610fa0575060009150600390508261102a565b604080516000808252602082018084528a905260ff891692820192909252606081018790526080810186905260019060a0016020604051602081039080840390855afa158015610ff4573d6000803e3d6000fd5b5050604051601f1901519150506001600160a01b0381166110205750600092506001915082905061102a565b9250600091508190505b9450945094915050565b80356001600160a01b038116811461104b57600080fd5b919050565b60006020828403121561106257600080fd5b61106b82611034565b9392505050565b60006020828403121561108457600080fd5b5035919050565b60008083601f84011261109d57600080fd5b50813567ffffffffffffffff8111156110b557600080fd5b6020830191508360208260051b85010111156110d057600080fd5b9250929050565b60008060008060008060006080888a0312156110f257600080fd5b87359650602088013567ffffffffffffffff81111561111057600080fd5b61111c8a828b0161108b565b909750955050604088013567ffffffffffffffff81111561113c57600080fd5b6111488a828b0161108b565b909550935050606088013567ffffffffffffffff81111561116857600080fd5b8801601f81018a1361117957600080fd5b803567ffffffffffffffff81111561119057600080fd5b8a60208284010111156111a257600080fd5b602082019350809250505092959891949750929550565b6000602082840312156111cb57600080fd5b8151801515811461106b57600080fd5b634e487b7160e01b600052603260045260246000fd5b634e487b7160e01b600052601160045260246000fd5b80820180821115610e5557610e556111f1565b8581526000602082018660005b87811015611256576001600160a01b0361124083611034565b1683526020928301929190910190600101611227565b50506001600160fb1b0384111561126c57600080fd5b8360051b8086833701979650505050505050565b8082028115828204841417610e5557610e556111f1565b6000826112b457634e487b7160e01b600052601260045260246000fd5b500490565b81810381811115610e5557610e556111f1565b634e487b7160e01b600052602160045260246000fdfea26469706673582212206926674ce3110848a35de82b36779897dc9aa05da2133f3a607a53017e47a30264736f6c634300081e0033",
  "devdoc": {
    "details": "Intended for Hackathon MVP. Implements Yellow Network-style state channel logic simplified.",
    "errors": {
      "ECDSAInvalidSignature()": [
        {
          "details": "The signature derives the `address(0)`."
        }
      ],
      "ECDSAInvalidSignatureLength(uint256)": [
        {
          "details": "The signature has an invalid length."
        }
      ],
      "ECDSAInvalidSignatureS(bytes32)": [
        {
          "details": "The signature has an S value that is in the upper half order."
        }
      ]
    },
    "kind": "dev",
    "methods": {
      "abortSession(bytes32)": {
        "details": "unique to MVP, allows manual closing."
      },
      "createSession(uint256)": {
        "params": {
          "_amount": "The amount of USDC to lock for this session."
        },
        "returns": {
          "sessionId": "The unique identifier for the session."
        }
      },
      "settleSession(bytes32,address[],uint256[],bytes)": {
        "params": {
          "_amounts": "List of amounts for each recipient.",
          "_recipients": "List of addresses to receive tips.",
          "_sessionId": "The ID of the session to settle.",
          "_signature": "The signature of the creator confirming this distribution."
        }
      }
    },
    "title": "TipFlowSession",
    "version": 1
  },
  "userdoc": {
    "kind": "user",
    "methods": {
      "abortSession(bytes32)": {
        "notice": "Allows creator to withdraw funds if no tips were sent, without a signature (simplified for MVP)."
      },
      "createSession(uint256)": {
        "notice": "Starts a tipping session by locking USDC."
      },
      "settleSession(bytes32,address[],uint256[],bytes)": {
        "notice": "Settles a session by verifying the off-chain \"final state\" signature and distributing funds."
      },
      "withdraw()": {
        "notice": "Allows a user to withdraw their available balance."
      }
    },
    "notice": "Validates off-chain tipping sessions and handles on-chain settlement.",
    "version": 1
  },
  "storageLayout": {
    "storage": [
      {
        "astId": 1946,
        "contract": "contracts/TipFlowSession.sol:TipFlowSession",
        "label": "sessions",
        "offset": 0,
        "slot": "0",
        "type": "t_mapping(t_bytes32,t_struct(Session)1941_storage)"
      },
      {
        "astId": 1950,
        "contract": "contracts/TipFlowSession.sol:TipFlowSession",
        "label": "balances",
        "offset": 0,
        "slot": "1",
        "type": "t_mapping(t_address,t_uint256)"
      }
    ],
    "types": {
      "t_address": {
        "encoding": "inplace",
        "label": "address",
        "numberOfBytes": "20"
      },
      "t_bool": {
        "encoding": "inplace",
        "label": "bool",
        "numberOfBytes": "1"
      },
      "t_bytes32": {
        "encoding": "inplace",
        "label": "bytes32",
        "numberOfBytes": "32"
      },
      "t_mapping(t_address,t_uint256)": {
        "encoding": "mapping",
        "key": "t_address",
        "label": "mapping(address => uint256)",
        "numberOfBytes": "32",
        "value": "t_uint256"
      },
      "t_mapping(t_bytes32,t_struct(Session)1941_storage)": {
        "encoding": "mapping",
        "key": "t_bytes32",
        "label": "mapping(bytes32 => struct TipFlowSession.Session)",
        "numberOfBytes": "32",
        "value": "t_struct(Session)1941_storage"
      },
      "t_struct(Session)1941_storage": {
        "encoding": "inplace",
        "label": "struct TipFlowSession.Session",
        "members": [
          {
            "astId": 1936,
            "contract": "contracts/TipFlowSession.sol:TipFlowSession",
            "label": "creator",
            "offset": 0,
            "slot": "0",
            "type": "t_address"
          },
          {
            "astId": 1938,
            "contract": "contracts/TipFlowSession.sol:TipFlowSession",
            "label": "totalAmount",
            "offset": 0,
            "slot": "1",
            "type": "t_uint256"
          },
          {
            "astId": 1940,
            "contract": "contracts/TipFlowSession.sol:TipFlowSession",
            "label": "isActive",
            "offset": 0,
            "slot": "2",
            "type": "t_bool"
          }
        ],
        "numberOfBytes": "96"
      },
      "t_uint256": {
        "encoding": "inplace",
        "label": "uint256",
        "numberOfBytes": "32"
      }
    }
  }
}