{
  "address": "0x15510EA840ae815cAa7fAe09f4dcda05f9873698",
  "abi": [
    {
      "inputs": [
        {
          "internalType": "address",
          "name": "_usdcToken",
          "type": "address"
        },
        {
          "internalType": "address",
          "name": "_platformWallet",
          "type": "address"
        }
      ],
      "stateMutability": "nonpayable",
      "type": "constructor"
    },
    {
      "inputs": [],
      "name": "ECDSAInvalidSignature",
      "type": "error"
    },
    {
      "inputs": [
        {
          "internalType": "uint256",
          "name": "length",
          "type": "uint256"
        }
      ],
      "name": "ECDSAInvalidSignatureLength",
      "type": "error"
    },
    {
      "inputs": [
        {
          "internalType": "bytes32",
          "name": "s",
          "type": "bytes32"
        }
      ],
      "name": "ECDSAInvalidSignatureS",
      "type": "error"
    },
    {
      "anonymous": false,
      "inputs": [
        {
          "indexed": true,
          "internalType": "bytes32",
          "name": "sessionId",
          "type": "bytes32"
        },
        {
          "indexed": false,
          "internalType": "uint256",
          "name": "feeAmount",
          "type": "uint256"
        }
      ],
      "name": "FeeCollected",
      "type": "event"
    },
    {
      "anonymous": false,
      "inputs": [
        {
          "indexed": true,
          "internalType": "bytes32",
          "name": "sessionId",
          "type": "bytes32"
        },
        {
          "indexed": true,
          "internalType": "address",
          "name": "creator",
          "type": "address"
        },
        {
          "indexed": false,
          "internalType": "uint256",
          "name": "amount",
          "type": "uint256"
        }
      ],
      "name": "SessionCreated",
      "type": "event"
    },
    {
      "anonymous": false,
      "inputs": [
        {
          "indexed": true,
          "internalType": "bytes32",
          "name": "sessionId",
          "type": "bytes32"
        },
        {
          "indexed": true,
          "internalType": "address",
          "name": "creator",
          "type": "address"
        },
        {
          "indexed": false,
          "internalType": "uint256",
          "name": "totalDistributed",
          "type": "uint256"
        },
        {
          "indexed": false,
          "internalType": "uint256",
          "name": "refundAmount",
          "type": "uint256"
        }
      ],
      "name": "SessionSettled",
      "type": "event"
    },
    {
      "anonymous": false,
      "inputs": [
        {
          "indexed": true,
          "internalType": "address",
          "name": "recipient",
          "type": "address"
        },
        {
          "indexed": false,
          "internalType": "uint256",
          "name": "amount",
          "type": "uint256"
        }
      ],
      "name": "TipAvailable",
      "type": "event"
    },
    {
      "anonymous": false,
      "inputs": [
        {
          "indexed": true,
          "internalType": "address",
          "name": "recipient",
          "type": "address"
        },
        {
          "indexed": false,
          "internalType": "uint256",
          "name": "amount",
          "type": "uint256"
        },
        {
          "indexed": true,
          "internalType": "address",
          "name": "tipper",
          "type": "address"
        },
        {
          "indexed": true,
          "internalType": "bytes32",
          "name": "sessionId",
          "type": "bytes32"
        }
      ],
      "name": "TipReceived",
      "type": "event"
    },
    {
      "anonymous": false,
      "inputs": [
        {
          "indexed": true,
          "internalType": "address",
          "name": "recipient",
          "type": "address"
        },
        {
          "indexed": false,
          "internalType": "uint256",
          "name": "amount",
          "type": "uint256"
        }
      ],
      "name": "Withdrawn",
      "type": "event"
    },
    {
      "inputs": [],
      "name": "PLATFORM_FEE_PERCENTAGE",
      "outputs": [
        {
          "internalType": "uint256",
          "name": "",
          "type": "uint256"
        }
      ],
      "stateMutability": "view",
      "type": "function"
    },
    {
      "inputs": [
        {
          "internalType": "bytes32",
          "name": "_sessionId",
          "type": "bytes32"
        }
      ],
      "name": "abortSession",
      "outputs": [],
      "stateMutability": "nonpayable",
      "type": "function"
    },
    {
      "inputs": [
        {
          "internalType": "address",
          "name": "",
          "type": "address"
        }
      ],
      "name": "balances",
      "outputs": [
        {
          "internalType": "uint256",
          "name": "",
          "type": "uint256"
        }
      ],
      "stateMutability": "view",
      "type": "function"
    },
    {
      "inputs": [
        {
          "internalType": "uint256",
          "name": "_amount",
          "type": "uint256"
        }
      ],
      "name": "createSession",
      "outputs": [
        {
          "internalType": "bytes32",
          "name": "sessionId",
          "type": "bytes32"
        }
      ],
      "stateMutability": "nonpayable",
      "type": "function"
    },
    {
      "inputs": [],
      "name": "platformWallet",
      "outputs": [
        {
          "internalType": "address",
          "name": "",
          "type": "address"
        }
      ],
      "stateMutability": "view",
      "type": "function"
    },
    {
      "inputs": [
        {
          "internalType": "bytes32",
          "name": "",
          "type": "bytes32"
        }
      ],
      "name": "sessions",
      "outputs": [
        {
          "internalType": "address",
          "name": "creator",
          "type": "address"
        },
        {
          "internalType": "uint256",
          "name": "totalAmount",
          "type": "uint256"
        },
        {
          "internalType": "bool",
          "name": "isActive",
          "type": "bool"
        }
      ],
      "stateMutability": "view",
      "type": "function"
    },
    {
      "inputs": [
        {
          "internalType": "bytes32",
          "name": "_sessionId",
          "type": "bytes32"
        },
        {
          "internalType": "address[]",
          "name": "_recipients",
          "type": "address[]"
        },
        {
          "internalType": "uint256[]",
          "name": "_amounts",
          "type": "uint256[]"
        },
        {
          "internalType": "bytes",
          "name": "_signature",
          "type": "bytes"
        }
      ],
      "name": "settleSession",
      "outputs": [],
      "stateMutability": "nonpayable",
      "type": "function"
    },
    {
      "inputs": [],
      "name": "usdcToken",
      "outputs": [
        {
          "internalType": "contract IERC20",
          "name": "",
          "type": "address"
        }
      ],
      "stateMutability": "view",
      "type": "function"
    },
    {
      "inputs": [],
      "name": "withdraw",
      "outputs": [],
      "stateMutability": "nonpayable",
      "type": "function"
    }
  ],
  "transactionHash": "0x67e92f70f81a581fe27361ac0eb16137d0001a7a55afba473b09e3d64d93ea8d",
  "args": [
    "0x1c7D4B196Cb0C7B01d743Fbc6116a902379C7238",
    "0x78c5FEb77d691697532741594189DcDAbb69da87"
  ],
  "numDeployments": 1,
  "solcInputHash": "b53a398893f1bfc83bb5fb52acfd7d73",
  "bytecode": "0x60c03461010057601f61121538819003918201601f19168301916001600160401b0383118484101761010557808492604094855283398101031261010057610052602061004b8361011b565b920161011b565b906001600160a01b038216156100bb576001600160a01b031660805260a0526040516110e5908161013082396080518181816101100152818161037f0152818161071b0152818161080001528181610cc60152610e38015260a051818181609801526107c60152f35b60405162461bcd60e51b815260206004820152601760248201527f496e76616c696420706c6174666f726d2077616c6c65740000000000000000006044820152606490fd5b600080fd5b634e487b7160e01b600052604160045260246000fd5b51906001600160a01b03821682036101005756fe608080604052600436101561001357600080fd5b60003560e01c90816311eac85514610e25575080631554823214610e0957806327e235e314610dcb5780633ccfd60b14610c5f5780637dbd283214610c0f578063be9294da1461048c578063d8fa2efd146102fd578063f847cdde146100cc5763fa2af9da1461008257600080fd5b346100c75760003660031901126100c7576040517f00000000000000000000000000000000000000000000000000000000000000006001600160a01b03168152602090f35b600080fd5b346100c75760203660031901126100c75760043580156102b8576040516323b872dd60e01b81523360048201523060248201526044810182905260208160648160007f00000000000000000000000000000000000000000000000000000000000000006001600160a01b03165af19081156102ac5760009161027d575b50156102415760405160208101903360601b825242603482015282605482015260548152610178607482610e98565b51902060405191606083019280841067ffffffffffffffff85111761022b57602093604052338152600284820191838352604081019260018452856000526000875260406000209160018060a01b039051166bffffffffffffffffffffffff60a01b835416178255516001820155019051151560ff80198354169116179055604051908152817f12212fc639e7368fbfdeb5ffb8ab971f9fe1d8736a5aee1b07fea216ab776293843393a3604051908152f35b634e487b7160e01b600052604160045260246000fd5b60405162461bcd60e51b81526020600482015260146024820152731554d110c81d1c985b9cd9995c8819985a5b195960621b6044820152606490fd5b61029f915060203d6020116102a5575b6102978183610e98565b810190610eba565b82610149565b503d61028d565b6040513d6000823e3d90fd5b60405162461bcd60e51b815260206004820152601d60248201527f416d6f756e74206d7573742062652067726561746572207468616e20300000006044820152606490fd5b346100c75760203660031901126100c7576004358060005260006020526040600020600281019081549160ff8316156104525781546001600160a01b0316923384036104175760ff19169055600101805460405163a9059cbb60e01b81526001600160a01b0390931660048401526024830152906020818060448101038160007f00000000000000000000000000000000000000000000000000000000000000006001600160a01b03165af180156102ac576103c1916000916103f8575b50610f26565b5490604051916000835260208301527f7c23ae8845bbff5117865e964e8f3c52a071db75b5c5cef7abe26ae9e411928160403393a3005b610411915060203d6020116102a5576102978183610e98565b846103bb565b60405162461bcd60e51b81526020600482015260136024820152722737ba1039b2b9b9b4b7b71031b932b0ba37b960691b6044820152606490fd5b60405162461bcd60e51b815260206004820152601260248201527153657373696f6e206e6f742061637469766560701b6044820152606490fd5b346100c75760803660031901126100c75760043560243567ffffffffffffffff81116100c7576104c0903690600401610e67565b60449291923567ffffffffffffffff81116100c7576104e3903690600401610e67565b936064359467ffffffffffffffff86116100c757366023870112156100c75785600401359367ffffffffffffffff85116100c757602487019660248636920101116100c75785600052600060205260406000209360028501805460ff811615610bd257848403610b9457600097885b868110610b745750600188019a8b548a11610b2f5760405160208101908c8252604081018a60005b8a8110610b055750506001600160fb1b038a116100c757816105ae918b60051b90818b82370103601f198101835282610e98565b5190207f19457468657265756d205369676e6564204d6573736167653a0a3332000000006000908152601c829052603c81208b546001600160a01b0316939291843b15610ab8575050918391606460209460405196879586948593630b135d3f60e11b8552600485015260406024850152816044850152848401376000828201840152601f01601f191681010301915afa8091600091610a6e575b5090610a56575060005b15610a1d5760ff19169055600093845b8381106108cb575050505050806107af575b5083548281116106c8575b50816106bb7f7c23ae8845bbff5117865e964e8f3c52a071db75b5c5cef7abe26ae9e41192819360409360018060a01b039054169654610f05565b82519182526020820152a3005b815461071593916020916001600160a01b0316906106e7908490610f05565b60405163a9059cbb60e01b81526001600160a01b039092166004830152602482015293849081906044820190565b038160007f00000000000000000000000000000000000000000000000000000000000000006001600160a01b03165af19283156102ac57816040936107867f7c23ae8845bbff5117865e964e8f3c52a071db75b5c5cef7abe26ae9e4119281966106bb946000916107905750610f26565b9350935050610680565b6107a9915060203d6020116102a5576102978183610e98565b8a6103bb565b60405163a9059cbb60e01b81526001600160a01b037f0000000000000000000000000000000000000000000000000000000000000000166004820152602481018290526020818060448101038160007f00000000000000000000000000000000000000000000000000000000000000006001600160a01b03165af19081156102ac576000916108ac575b5015610871577f156e588d1067ba3c8a6a7f4376ef70794f8afed114dc9d1421e054b65743e63060208592604051908152a284610675565b60405162461bcd60e51b8152602060048201526013602482015272119959481d1c985b9cd9995c8819985a5b1959606a1b6044820152606490fd5b6108c5915060203d6020116102a5576102978183610e98565b86610839565b6108d6818685610ed2565b356108e4575b600101610663565b6108ef818685610ed2565b359081800460011482151715610a075761090f6064600193048098610ef8565b966109258161091f848a89610ed2565b35610f05565b838060a01b0361093e610939858a89610ed2565b610f12565b16600052836020526109566040600020918254610ef8565b90558a610967610939848988610ed2565b610972848a89610ed2565b357fea7bf02a0f49b5e44f8ad4fb7407eba7c269b8f772a5de8ff13d452394964a3560208d888060a01b0390541693604051938452888060a01b031692a47f1035cf4ed71e98b7709661245fe873faf2c0ffffa0be7b568c2d9ec88f79650260206109f06109e4610939868b8a610ed2565b9361091f868c8b610ed2565b92604051938452858060a01b031692a290506108dc565b634e487b7160e01b600052601160045260246000fd5b60405162461bcd60e51b8152602060048201526011602482015270496e76616c6964207369676e617475726560781b6044820152606490fd5b6001600160e01b031916630b135d3f60e11b14610653565b6020813d602011610ab0575b81610a8760209383610e98565b81010312610aac5751906001600160e01b031982168203610aa957508c610649565b80fd5b5080fd5b3d9150610a7a565b610aed9392506020610af695968060405195610add84601f19601f8501160188610e98565b8187528387013784010152610f62565b90929192610f9e565b6001600160a01b031614610653565b909182356001600160a01b03811691908290036100c757602081600193829352019301910161057a565b60405162461bcd60e51b815260206004820152601c60248201527f496e73756666696369656e742073657373696f6e2062616c616e6365000000006044820152606490fd5b98610b8d600191610b868c8a89610ed2565b3590610ef8565b9901610552565b60405162461bcd60e51b8152602060048201526016602482015275082e4e4c2f2e640d8cadccee8d040dad2e6dac2e8c6d60531b6044820152606490fd5b60405162461bcd60e51b815260206004820152601560248201527453657373696f6e206973206e6f742061637469766560581b6044820152606490fd5b346100c75760203660031901126100c75760043560005260006020526060604060002060018060a01b038154169060ff600260018301549201541690604051928352602083015215156040820152f35b346100c75760003660031901126100c7573360005260016020526040600020548015610d8f573360008181526001602090815260408083208390555163a9059cbb60e01b815260048101939093526024830184905290829060449082906001600160a01b037f0000000000000000000000000000000000000000000000000000000000000000165af19081156102ac57600091610d70575b5015610d2b576040519081527f7084f5476618d8e60b11ef0d7d3f06914655adb8793e28ff7f018d4c76d505d560203392a2005b60405162461bcd60e51b815260206004820152601860248201527f5769746864726177207472616e73666572206661696c656400000000000000006044820152606490fd5b610d89915060203d6020116102a5576102978183610e98565b82610cf7565b60405162461bcd60e51b81526020600482015260146024820152734e6f2066756e647320746f20776974686472617760601b6044820152606490fd5b346100c75760203660031901126100c7576004356001600160a01b038116908190036100c75760005260016020526020604060002054604051908152f35b346100c75760003660031901126100c757602060405160018152f35b346100c75760003660031901126100c7577f00000000000000000000000000000000000000000000000000000000000000006001600160a01b03168152602090f35b9181601f840112156100c75782359167ffffffffffffffff83116100c7576020808501948460051b0101116100c757565b90601f8019910116810190811067ffffffffffffffff82111761022b57604052565b908160209103126100c7575180151581036100c75790565b9190811015610ee25760051b0190565b634e487b7160e01b600052603260045260246000fd5b91908201809211610a0757565b91908203918211610a0757565b356001600160a01b03811681036100c75790565b15610f2d57565b60405162461bcd60e51b815260206004820152600d60248201526c1499599d5b990819985a5b1959609a1b6044820152606490fd5b8151919060418303610f9357610f8c92506020820151906060604084015193015160001a90611026565b9192909190565b505060009160029190565b91909160048110156110105780610fb457509050565b600060018203610fcf5763f645eedf60e01b60005260046000fd5b5060028103610fed578263fce698f760e01b60005260045260246000fd5b9091600360009214610ffd575050565b6335e2f38360e21b825260045260249150fd5b634e487b7160e01b600052602160045260246000fd5b91907f7fffffffffffffffffffffffffffffff5d576e7357a4501ddfe92f46681b20a084116110a3579160209360809260ff60009560405194855216868401526040830152606082015282805260015afa156102ac576000516001600160a01b038116156110975790600090600090565b50600090600190600090565b5050506000916003919056fea26469706673582212201a8dda7f56322343791a7fd3e93ade268e5f0134d882119e5b952a3d14c44a1264736f6c634300081e0033",
  "devdoc": {
    "details": "Intended for Hackathon MVP. Implements Yellow Network-style state channel logic simplified.",
    "errors": {
      "ECDSAInvalidSignature()": [
        {
          "details": "The signature derives the `address(0)`."
        }
      ],
      "ECDSAInvalidSignatureLength(uint256)": [
        {
          "details": "The signature has an invalid length."
        }
      ],
      "ECDSAInvalidSignatureS(bytes32)": [
        {
          "details": "The signature has an S value that is in the upper half order."
        }
      ]
    },
    "kind": "dev",
    "methods": {
      "abortSession(bytes32)": {
        "details": "unique to MVP, allows manual closing."
      },
      "createSession(uint256)": {
        "params": {
          "_amount": "The amount of USDC to lock for this session."
        },
        "returns": {
          "sessionId": "The unique identifier for the session."
        }
      },
      "settleSession(bytes32,address[],uint256[],bytes)": {
        "params": {
          "_amounts": "List of amounts for each recipient.",
          "_recipients": "List of addresses to receive tips.",
          "_sessionId": "The ID of the session to settle.",
          "_signature": "The signature of the creator confirming this distribution."
        }
      }
    },
    "title": "TipFlowSession",
    "version": 1
  },
  "userdoc": {
    "kind": "user",
    "methods": {
      "abortSession(bytes32)": {
        "notice": "Allows creator to withdraw funds if no tips were sent, without a signature (simplified for MVP)."
      },
      "createSession(uint256)": {
        "notice": "Starts a tipping session by locking USDC."
      },
      "settleSession(bytes32,address[],uint256[],bytes)": {
        "notice": "Settles a session by verifying the off-chain \"final state\" signature and distributing funds."
      },
      "withdraw()": {
        "notice": "Allows a user to withdraw their available balance."
      }
    },
    "notice": "Validates off-chain tipping sessions and handles on-chain settlement.",
    "version": 1
  },
  "storageLayout": {
    "storage": [
      {
        "astId": 1958,
        "contract": "contracts/TipFlowSession.sol:TipFlowSession",
        "label": "sessions",
        "offset": 0,
        "slot": "0",
        "type": "t_mapping(t_bytes32,t_struct(Session)1953_storage)"
      },
      {
        "astId": 1962,
        "contract": "contracts/TipFlowSession.sol:TipFlowSession",
        "label": "balances",
        "offset": 0,
        "slot": "1",
        "type": "t_mapping(t_address,t_uint256)"
      }
    ],
    "types": {
      "t_address": {
        "encoding": "inplace",
        "label": "address",
        "numberOfBytes": "20"
      },
      "t_bool": {
        "encoding": "inplace",
        "label": "bool",
        "numberOfBytes": "1"
      },
      "t_bytes32": {
        "encoding": "inplace",
        "label": "bytes32",
        "numberOfBytes": "32"
      },
      "t_mapping(t_address,t_uint256)": {
        "encoding": "mapping",
        "key": "t_address",
        "label": "mapping(address => uint256)",
        "numberOfBytes": "32",
        "value": "t_uint256"
      },
      "t_mapping(t_bytes32,t_struct(Session)1953_storage)": {
        "encoding": "mapping",
        "key": "t_bytes32",
        "label": "mapping(bytes32 => struct TipFlowSession.Session)",
        "numberOfBytes": "32",
        "value": "t_struct(Session)1953_storage"
      },
      "t_struct(Session)1953_storage": {
        "encoding": "inplace",
        "label": "struct TipFlowSession.Session",
        "members": [
          {
            "astId": 1948,
            "contract": "contracts/TipFlowSession.sol:TipFlowSession",
            "label": "creator",
            "offset": 0,
            "slot": "0",
            "type": "t_address"
          },
          {
            "astId": 1950,
            "contract": "contracts/TipFlowSession.sol:TipFlowSession",
            "label": "totalAmount",
            "offset": 0,
            "slot": "1",
            "type": "t_uint256"
          },
          {
            "astId": 1952,
            "contract": "contracts/TipFlowSession.sol:TipFlowSession",
            "label": "isActive",
            "offset": 0,
            "slot": "2",
            "type": "t_bool"
          }
        ],
        "numberOfBytes": "96"
      },
      "t_uint256": {
        "encoding": "inplace",
        "label": "uint256",
        "numberOfBytes": "32"
      }
    }
  }
}