{
  "address": "0x5AA58E15f86bD2E249F9fAc1CA9e59D48afaAf47",
  "abi": [
    {
      "inputs": [
        {
          "internalType": "address",
          "name": "_usdcToken",
          "type": "address"
        }
      ],
      "stateMutability": "nonpayable",
      "type": "constructor"
    },
    {
      "inputs": [],
      "name": "ECDSAInvalidSignature",
      "type": "error"
    },
    {
      "inputs": [
        {
          "internalType": "uint256",
          "name": "length",
          "type": "uint256"
        }
      ],
      "name": "ECDSAInvalidSignatureLength",
      "type": "error"
    },
    {
      "inputs": [
        {
          "internalType": "bytes32",
          "name": "s",
          "type": "bytes32"
        }
      ],
      "name": "ECDSAInvalidSignatureS",
      "type": "error"
    },
    {
      "anonymous": false,
      "inputs": [
        {
          "indexed": true,
          "internalType": "bytes32",
          "name": "sessionId",
          "type": "bytes32"
        },
        {
          "indexed": true,
          "internalType": "address",
          "name": "creator",
          "type": "address"
        },
        {
          "indexed": false,
          "internalType": "uint256",
          "name": "amount",
          "type": "uint256"
        }
      ],
      "name": "SessionCreated",
      "type": "event"
    },
    {
      "anonymous": false,
      "inputs": [
        {
          "indexed": true,
          "internalType": "bytes32",
          "name": "sessionId",
          "type": "bytes32"
        },
        {
          "indexed": true,
          "internalType": "address",
          "name": "creator",
          "type": "address"
        },
        {
          "indexed": false,
          "internalType": "uint256",
          "name": "totalDistributed",
          "type": "uint256"
        },
        {
          "indexed": false,
          "internalType": "uint256",
          "name": "refundAmount",
          "type": "uint256"
        }
      ],
      "name": "SessionSettled",
      "type": "event"
    },
    {
      "inputs": [
        {
          "internalType": "bytes32",
          "name": "_sessionId",
          "type": "bytes32"
        }
      ],
      "name": "abortSession",
      "outputs": [],
      "stateMutability": "nonpayable",
      "type": "function"
    },
    {
      "inputs": [
        {
          "internalType": "uint256",
          "name": "_amount",
          "type": "uint256"
        }
      ],
      "name": "createSession",
      "outputs": [
        {
          "internalType": "bytes32",
          "name": "sessionId",
          "type": "bytes32"
        }
      ],
      "stateMutability": "nonpayable",
      "type": "function"
    },
    {
      "inputs": [
        {
          "internalType": "bytes32",
          "name": "",
          "type": "bytes32"
        }
      ],
      "name": "sessions",
      "outputs": [
        {
          "internalType": "address",
          "name": "creator",
          "type": "address"
        },
        {
          "internalType": "uint256",
          "name": "totalAmount",
          "type": "uint256"
        },
        {
          "internalType": "bool",
          "name": "isActive",
          "type": "bool"
        }
      ],
      "stateMutability": "view",
      "type": "function"
    },
    {
      "inputs": [
        {
          "internalType": "bytes32",
          "name": "_sessionId",
          "type": "bytes32"
        },
        {
          "internalType": "address[]",
          "name": "_recipients",
          "type": "address[]"
        },
        {
          "internalType": "uint256[]",
          "name": "_amounts",
          "type": "uint256[]"
        },
        {
          "internalType": "bytes",
          "name": "_signature",
          "type": "bytes"
        }
      ],
      "name": "settleSession",
      "outputs": [],
      "stateMutability": "nonpayable",
      "type": "function"
    },
    {
      "inputs": [],
      "name": "usdcToken",
      "outputs": [
        {
          "internalType": "contract IERC20",
          "name": "",
          "type": "address"
        }
      ],
      "stateMutability": "view",
      "type": "function"
    }
  ],
  "transactionHash": "0xe9cf62afe451d764c427a69cc51d86f5d571a0fe3482866a3480b7263cff077b",
  "args": [
    "0x1c7D4B196Cb0C7B01d743Fbc6116a902379C7238"
  ],
  "numDeployments": 1,
  "solcInputHash": "39df1e0f41be6bc8a6cc107be0807e01",
  "bytecode": "0x60a060405234801561001057600080fd5b50604051610f6c380380610f6c83398101604081905261002f91610040565b6001600160a01b0316608052610070565b60006020828403121561005257600080fd5b81516001600160a01b038116811461006957600080fd5b9392505050565b608051610ec66100a6600039600081816061015281816103c1015281816105360152818161071901526108820152610ec66000f3fe608060405234801561001057600080fd5b50600436106100575760003560e01c806311eac8551461005c5780637dbd2832146100a0578063be9294da14610103578063d8fa2efd14610118578063f847cdde1461012b575b600080fd5b6100837f000000000000000000000000000000000000000000000000000000000000000081565b6040516001600160a01b0390911681526020015b60405180910390f35b6100dc6100ae366004610c1b565b6000602081905290815260409020805460018201546002909201546001600160a01b03909116919060ff1683565b604080516001600160a01b0390941684526020840192909252151590820152606001610097565b610116610111366004610c80565b61014c565b005b610116610126366004610c1b565b610639565b61013e610139366004610c1b565b61080c565b604051908152602001610097565b6000878152602081905260409020600281015460ff166101ab5760405162461bcd60e51b815260206004820152601560248201527453657373696f6e206973206e6f742061637469766560581b60448201526064015b60405180910390fd5b8584146101f35760405162461bcd60e51b8152602060048201526016602482015275082e4e4c2f2e640d8cadccee8d040dad2e6dac2e8c6d60531b60448201526064016101a2565b6000805b8581101561022d5786868281811061021157610211610d62565b90506020020135826102239190610d8e565b91506001016101f7565b5081600101548111156102825760405162461bcd60e51b815260206004820152601c60248201527f496e73756666696369656e742073657373696f6e2062616c616e63650000000060448201526064016101a2565b6000898989898960405160200161029d959493929190610dbd565b60405160208183030381529060405280519060200120905060006102ee827f19457468657265756d205369676e6564204d6573736167653a0a3332000000006000908152601c91909152603c902090565b9050600061033487878080601f0160208091040260200160405190810160405280939291908181526020018383808284376000920191909152508693925050610a169050565b85549091506001600160a01b038083169116146103875760405162461bcd60e51b8152602060048201526011602482015270496e76616c6964207369676e617475726560781b60448201526064016101a2565b60028501805460ff1916905560005b8a8110156104f35760008a8a838181106103b2576103b2610d62565b9050602002013511156104eb577f00000000000000000000000000000000000000000000000000000000000000006001600160a01b031663a9059cbb8d8d8481811061040057610400610d62565b90506020020160208101906104159190610e23565b8c8c8581811061042757610427610d62565b6040516001600160e01b031960e087901b1681526001600160a01b03909416600485015260200291909101356024830152506044016020604051808303816000875af115801561047b573d6000803e3d6000fd5b505050506040513d601f19601f8201168201806040525081019061049f9190610e45565b6104eb5760405162461bcd60e51b815260206004820152601c60248201527f5472616e7366657220746f20726563697069656e74206661696c65640000000060448201526064016101a2565b600101610396565b5060008486600101546105069190610e67565b905080156105e157855460405163a9059cbb60e01b81526001600160a01b039182166004820152602481018390527f00000000000000000000000000000000000000000000000000000000000000009091169063a9059cbb906044016020604051808303816000875af1158015610581573d6000803e3d6000fd5b505050506040513d601f19601f820116820180604052508101906105a59190610e45565b6105e15760405162461bcd60e51b815260206004820152600d60248201526c1499599d5b990819985a5b1959609a1b60448201526064016101a2565b855460408051878152602081018490526001600160a01b03909216918f917f7c23ae8845bbff5117865e964e8f3c52a071db75b5c5cef7abe26ae9e4119281910160405180910390a350505050505050505050505050565b6000818152602081905260409020600281015460ff166106905760405162461bcd60e51b815260206004820152601260248201527153657373696f6e206e6f742061637469766560701b60448201526064016101a2565b80546001600160a01b031633146106df5760405162461bcd60e51b81526020600482015260136024820152722737ba1039b2b9b9b4b7b71031b932b0ba37b960691b60448201526064016101a2565b60028101805460ff191690558054600182015460405163a9059cbb60e01b81526001600160a01b03928316600482015260248101919091527f00000000000000000000000000000000000000000000000000000000000000009091169063a9059cbb906044016020604051808303816000875af1158015610764573d6000803e3d6000fd5b505050506040513d601f19601f820116820180604052508101906107889190610e45565b6107c45760405162461bcd60e51b815260206004820152600d60248201526c1499599d5b990819985a5b1959609a1b60448201526064016101a2565b600181015460408051600081526020810192909252339184917f7c23ae8845bbff5117865e964e8f3c52a071db75b5c5cef7abe26ae9e4119281910160405180910390a35050565b600080821161085d5760405162461bcd60e51b815260206004820152601d60248201527f416d6f756e74206d7573742062652067726561746572207468616e203000000060448201526064016101a2565b6040516323b872dd60e01b8152336004820152306024820152604481018390526000907f00000000000000000000000000000000000000000000000000000000000000006001600160a01b0316906323b872dd906064016020604051808303816000875af11580156108d3573d6000803e3d6000fd5b505050506040513d601f19601f820116820180604052508101906108f79190610e45565b90508061093d5760405162461bcd60e51b81526020600482015260146024820152731554d110c81d1c985b9cd9995c8819985a5b195960621b60448201526064016101a2565b6040516bffffffffffffffffffffffff193360601b1660208201524260348201526054810184905260740160408051808303601f1901815282825280516020918201206060840183523380855282850188815260018686018181526000858152808752879020975188546001600160a01b0319166001600160a01b03909116178855915190870155516002909501805460ff191695151595909517909455915186815291945084917f12212fc639e7368fbfdeb5ffb8ab971f9fe1d8736a5aee1b07fea216ab776293910160405180910390a350919050565b600080600080610a268686610a42565b925092509250610a368282610a8f565b50909150505b92915050565b60008060008351604103610a7c5760208401516040850151606086015160001a610a6e88828585610b4c565b955095509550505050610a88565b50508151600091506002905b9250925092565b6000826003811115610aa357610aa3610e7a565b03610aac575050565b6001826003811115610ac057610ac0610e7a565b03610ade5760405163f645eedf60e01b815260040160405180910390fd5b6002826003811115610af257610af2610e7a565b03610b135760405163fce698f760e01b8152600481018290526024016101a2565b6003826003811115610b2757610b27610e7a565b03610b48576040516335e2f38360e21b8152600481018290526024016101a2565b5050565b600080807f7fffffffffffffffffffffffffffffff5d576e7357a4501ddfe92f46681b20a0841115610b875750600091506003905082610c11565b604080516000808252602082018084528a905260ff891692820192909252606081018790526080810186905260019060a0016020604051602081039080840390855afa158015610bdb573d6000803e3d6000fd5b5050604051601f1901519150506001600160a01b038116610c0757506000925060019150829050610c11565b9250600091508190505b9450945094915050565b600060208284031215610c2d57600080fd5b5035919050565b60008083601f840112610c4657600080fd5b50813567ffffffffffffffff811115610c5e57600080fd5b6020830191508360208260051b8501011115610c7957600080fd5b9250929050565b60008060008060008060006080888a031215610c9b57600080fd5b87359650602088013567ffffffffffffffff811115610cb957600080fd5b610cc58a828b01610c34565b909750955050604088013567ffffffffffffffff811115610ce557600080fd5b610cf18a828b01610c34565b909550935050606088013567ffffffffffffffff811115610d1157600080fd5b8801601f81018a13610d2257600080fd5b803567ffffffffffffffff811115610d3957600080fd5b8a6020828401011115610d4b57600080fd5b602082019350809250505092959891949750929550565b634e487b7160e01b600052603260045260246000fd5b634e487b7160e01b600052601160045260246000fd5b80820180821115610a3c57610a3c610d78565b80356001600160a01b0381168114610db857600080fd5b919050565b8581526000602082018660005b87811015610df9576001600160a01b03610de383610da1565b1683526020928301929190910190600101610dca565b50506001600160fb1b03841115610e0f57600080fd5b8360051b8086833701979650505050505050565b600060208284031215610e3557600080fd5b610e3e82610da1565b9392505050565b600060208284031215610e5757600080fd5b81518015158114610e3e57600080fd5b81810381811115610a3c57610a3c610d78565b634e487b7160e01b600052602160045260246000fdfea264697066735822122032271352c9ca60f02710ee716029b43dacd3624cefbe2dda142f2747aaee46e264736f6c634300081e0033",
  "devdoc": {
    "details": "Intended for Hackathon MVP. Implements Yellow Network-style state channel logic simplified.",
    "errors": {
      "ECDSAInvalidSignature()": [
        {
          "details": "The signature derives the `address(0)`."
        }
      ],
      "ECDSAInvalidSignatureLength(uint256)": [
        {
          "details": "The signature has an invalid length."
        }
      ],
      "ECDSAInvalidSignatureS(bytes32)": [
        {
          "details": "The signature has an S value that is in the upper half order."
        }
      ]
    },
    "kind": "dev",
    "methods": {
      "abortSession(bytes32)": {
        "details": "unique to MVP, allows manual closing."
      },
      "createSession(uint256)": {
        "params": {
          "_amount": "The amount of USDC to lock for this session."
        },
        "returns": {
          "sessionId": "The unique identifier for the session."
        }
      },
      "settleSession(bytes32,address[],uint256[],bytes)": {
        "params": {
          "_amounts": "List of amounts for each recipient.",
          "_recipients": "List of addresses to receive tips.",
          "_sessionId": "The ID of the session to settle.",
          "_signature": "The signature of the creator confirming this distribution."
        }
      }
    },
    "title": "TipFlowSession",
    "version": 1
  },
  "userdoc": {
    "kind": "user",
    "methods": {
      "abortSession(bytes32)": {
        "notice": "Allows creator to withdraw funds if no tips were sent, without a signature (simplified for MVP)."
      },
      "createSession(uint256)": {
        "notice": "Starts a tipping session by locking USDC."
      },
      "settleSession(bytes32,address[],uint256[],bytes)": {
        "notice": "Settles a session by verifying the off-chain \"final state\" signature and distributing funds."
      }
    },
    "notice": "Validates off-chain tipping sessions and handles on-chain settlement.",
    "version": 1
  },
  "storageLayout": {
    "storage": [
      {
        "astId": 1941,
        "contract": "contracts/TipFlowSession.sol:TipFlowSession",
        "label": "sessions",
        "offset": 0,
        "slot": "0",
        "type": "t_mapping(t_bytes32,t_struct(Session)1936_storage)"
      }
    ],
    "types": {
      "t_address": {
        "encoding": "inplace",
        "label": "address",
        "numberOfBytes": "20"
      },
      "t_bool": {
        "encoding": "inplace",
        "label": "bool",
        "numberOfBytes": "1"
      },
      "t_bytes32": {
        "encoding": "inplace",
        "label": "bytes32",
        "numberOfBytes": "32"
      },
      "t_mapping(t_bytes32,t_struct(Session)1936_storage)": {
        "encoding": "mapping",
        "key": "t_bytes32",
        "label": "mapping(bytes32 => struct TipFlowSession.Session)",
        "numberOfBytes": "32",
        "value": "t_struct(Session)1936_storage"
      },
      "t_struct(Session)1936_storage": {
        "encoding": "inplace",
        "label": "struct TipFlowSession.Session",
        "members": [
          {
            "astId": 1931,
            "contract": "contracts/TipFlowSession.sol:TipFlowSession",
            "label": "creator",
            "offset": 0,
            "slot": "0",
            "type": "t_address"
          },
          {
            "astId": 1933,
            "contract": "contracts/TipFlowSession.sol:TipFlowSession",
            "label": "totalAmount",
            "offset": 0,
            "slot": "1",
            "type": "t_uint256"
          },
          {
            "astId": 1935,
            "contract": "contracts/TipFlowSession.sol:TipFlowSession",
            "label": "isActive",
            "offset": 0,
            "slot": "2",
            "type": "t_bool"
          }
        ],
        "numberOfBytes": "96"
      },
      "t_uint256": {
        "encoding": "inplace",
        "label": "uint256",
        "numberOfBytes": "32"
      }
    }
  }
}