{
  "address": "0x399Ab7369BD6B488c34754B518a7F3A09216C68a",
  "abi": [
    {
      "inputs": [
        {
          "internalType": "address",
          "name": "_owner",
          "type": "address"
        }
      ],
      "stateMutability": "nonpayable",
      "type": "constructor"
    },
    {
      "anonymous": false,
      "inputs": [
        {
          "indexed": true,
          "internalType": "address",
          "name": "greetingSetter",
          "type": "address"
        },
        {
          "indexed": false,
          "internalType": "string",
          "name": "newGreeting",
          "type": "string"
        },
        {
          "indexed": false,
          "internalType": "bool",
          "name": "premium",
          "type": "bool"
        },
        {
          "indexed": false,
          "internalType": "uint256",
          "name": "value",
          "type": "uint256"
        }
      ],
      "name": "GreetingChange",
      "type": "event"
    },
    {
      "inputs": [],
      "name": "greeting",
      "outputs": [
        {
          "internalType": "string",
          "name": "",
          "type": "string"
        }
      ],
      "stateMutability": "view",
      "type": "function"
    },
    {
      "inputs": [],
      "name": "owner",
      "outputs": [
        {
          "internalType": "address",
          "name": "",
          "type": "address"
        }
      ],
      "stateMutability": "view",
      "type": "function"
    },
    {
      "inputs": [],
      "name": "premium",
      "outputs": [
        {
          "internalType": "bool",
          "name": "",
          "type": "bool"
        }
      ],
      "stateMutability": "view",
      "type": "function"
    },
    {
      "inputs": [
        {
          "internalType": "string",
          "name": "_newGreeting",
          "type": "string"
        }
      ],
      "name": "setGreeting",
      "outputs": [],
      "stateMutability": "payable",
      "type": "function"
    },
    {
      "inputs": [],
      "name": "totalCounter",
      "outputs": [
        {
          "internalType": "uint256",
          "name": "",
          "type": "uint256"
        }
      ],
      "stateMutability": "view",
      "type": "function"
    },
    {
      "inputs": [
        {
          "internalType": "address",
          "name": "",
          "type": "address"
        }
      ],
      "name": "userGreetingCounter",
      "outputs": [
        {
          "internalType": "uint256",
          "name": "",
          "type": "uint256"
        }
      ],
      "stateMutability": "view",
      "type": "function"
    },
    {
      "inputs": [],
      "name": "withdraw",
      "outputs": [],
      "stateMutability": "nonpayable",
      "type": "function"
    },
    {
      "stateMutability": "payable",
      "type": "receive"
    }
  ],
  "transactionHash": "0x642299969030561231e4d01ee72e3297c714a13a160fac68617c66e8cac3e497",
  "args": [
    "0xfE10fDB189363bdF01e4F9F641FbC0c388a4F264"
  ],
  "numDeployments": 1,
  "solcInputHash": "ab82801aa46290d89c4a5f0b72fc1477",
  "bytecode": "0x60a03461013157601f61086c38819003918201601f19168301916001600160401b038311848410176101365780849260209460405283398101031261013157516001600160a01b038116810361013157600054600181811c91168015610127575b602082101461011157601f81116100c8575b507f4275696c64696e6720556e73746f707061626c6520417070732121210000003860009081556001805460ff1916905560025560805260405161071f908161014d82396080518181816104f201526105340152f35b60008052601f0160051c7f290decd9548b62a8d60345a988386fc84ba6bc95484008f6362f93160ef3e563908101905b8181106101055750610072565b600081556001016100f8565b634e487b7160e01b600052602260045260246000fd5b90607f1690610060565b600080fd5b634e487b7160e01b600052604160045260246000fdfe608080604052600436101561001d575b50361561001b57600080fd5b005b60003560e01c9081633ccfd60b14610521575080638da5cb5b146104dc57806397feba9d146104be578063a4136862146101ad578063cea49c3c1461016f578063e0a73a931461014c5763ef690cc014610077573861000f565b3461014757600036600319011261014757604051600080546100988161064e565b808452906001811690811561012357506001146100d8575b6100d4836100c081850382610610565b604051918291602083526020830190610688565b0390f35b60008080526000805160206106ca833981519152939250905b808210610109575090915081016020016100c06100b0565b9192600181602092548385880101520191019092916100f1565b60ff191660208086019190915291151560051b840190910191506100c090506100b0565b600080fd5b3461014757600036600319011261014757602060ff600154166040519015158152f35b34610147576020366003190112610147576004356001600160a01b038116908190036101475760005260036020526020604060002054604051908152f35b60203660031901126101475760043567ffffffffffffffff811161014757366023820112156101475780600401356101e481610632565b916101f26040519384610610565b81835236602483830101116101475781600092602460209301838601378301015260606000806040516102258482610610565b602181527f53657474696e67206e6577206772656574696e6720272573272066726f6d20256020820152607360f81b60408201526040516102ab8161029761028560208301956395ed019560e01b87528960248501526084840190610688565b82810360231901604484015289610688565b33606483015203601f198101835282610610565b51906a636f6e736f6c652e6c6f675afa50815167ffffffffffffffff81116104a8576102d860005461064e565b601f811161043c575b50806020601f82116001146103cc576000916103c1575b508160011b916000199060031b1c1916176000555b600254600181018091116103ab576002553360005260036020526040600020908154600181018091116103ab577f94cbd7e04dca26a7667654f6448b2ca0a40fec602118dc5fd8c82b9cf3c645ad9255610388341515938460001461039c57600160ff19815416176001555b60405192808452830190610688565b9260208201523460408201528033930390a2005b60ff1960015416600155610379565b634e487b7160e01b600052601160045260246000fd5b9050830151846102f8565b60008080526000805160206106ca8339815191529250601f198416905b8181106104245750908360019493921061040b575b5050811b0160005561030d565b85015160001960f88460031b161c1916905584806103fe565b9192602060018192868a0151815501940192016103e9565b60008052601f820160051c6000805160206106ca833981519152019060208310610492575b601f0160051c6000805160206106ca83398151915201905b81811061048657506102e1565b60008155600101610479565b6000805160206106ca8339815191529150610461565b634e487b7160e01b600052604160045260246000fd5b34610147576000366003190112610147576020600254604051908152f35b34610147576000366003190112610147576040517f00000000000000000000000000000000000000000000000000000000000000006001600160a01b03168152602090f35b34610147576000366003190112610147577f0000000000000000000000000000000000000000000000000000000000000000906001600160a01b03821633036105de57600080808047865af13d156105d9573d61057d81610632565b9061058b6040519283610610565b8152600060203d92013e5b1561059d57005b60405162461bcd60e51b81526020600482015260146024820152732330b4b632b2103a379039b2b7321022ba3432b960611b6044820152606490fd5b610596565b62461bcd60e51b815260206004820152600d60248201526c2737ba103a34329027bbb732b960991b6044820152606490fd5b90601f8019910116810190811067ffffffffffffffff8211176104a857604052565b67ffffffffffffffff81116104a857601f01601f191660200190565b90600182811c9216801561067e575b602083101461066857565b634e487b7160e01b600052602260045260246000fd5b91607f169161065d565b919082519283825260005b8481106106b4575050826000602080949584010152601f8019910116010190565b8060208092840101518282860101520161069356fe290decd9548b62a8d60345a988386fc84ba6bc95484008f6362f93160ef3e563a26469706673582212202d071d1696a78ac21125182c49c72f99555828c4fd1f65b57d95f76e857e42c064736f6c634300081e0033",
  "devdoc": {
    "author": "BuidlGuidl",
    "kind": "dev",
    "methods": {
      "setGreeting(string)": {
        "params": {
          "_newGreeting": "(string memory) - new greeting to save on the contract"
        }
      }
    },
    "version": 1
  },
  "userdoc": {
    "kind": "user",
    "methods": {
      "setGreeting(string)": {
        "notice": "Function that allows anyone to change the state variable \"greeting\" of the contract and increase the counters"
      },
      "withdraw()": {
        "notice": "Function that allows the owner to withdraw all the Ether in the contract The function can only be called by the owner of the contract as defined by the isOwner modifier"
      }
    },
    "notice": "A smart contract that allows changing a state variable of the contract and tracking the changes It also allows the owner to withdraw the Ether in the contract",
    "version": 1
  },
  "storageLayout": {
    "storage": [
      {
        "astId": 3229,
        "contract": "contracts/YourContract.sol:YourContract",
        "label": "greeting",
        "offset": 0,
        "slot": "0",
        "type": "t_string_storage"
      },
      {
        "astId": 3232,
        "contract": "contracts/YourContract.sol:YourContract",
        "label": "premium",
        "offset": 0,
        "slot": "1",
        "type": "t_bool"
      },
      {
        "astId": 3235,
        "contract": "contracts/YourContract.sol:YourContract",
        "label": "totalCounter",
        "offset": 0,
        "slot": "2",
        "type": "t_uint256"
      },
      {
        "astId": 3239,
        "contract": "contracts/YourContract.sol:YourContract",
        "label": "userGreetingCounter",
        "offset": 0,
        "slot": "3",
        "type": "t_mapping(t_address,t_uint256)"
      }
    ],
    "types": {
      "t_address": {
        "encoding": "inplace",
        "label": "address",
        "numberOfBytes": "20"
      },
      "t_bool": {
        "encoding": "inplace",
        "label": "bool",
        "numberOfBytes": "1"
      },
      "t_mapping(t_address,t_uint256)": {
        "encoding": "mapping",
        "key": "t_address",
        "label": "mapping(address => uint256)",
        "numberOfBytes": "32",
        "value": "t_uint256"
      },
      "t_string_storage": {
        "encoding": "bytes",
        "label": "string",
        "numberOfBytes": "32"
      },
      "t_uint256": {
        "encoding": "inplace",
        "label": "uint256",
        "numberOfBytes": "32"
      }
    }
  }
}